{
  "_format": "hh-sol-artifact-1",
  "contractName": "FoodSupplyChain",
  "sourceName": "contracts/FoodSupplyChain.sol",
  "abi": [
    {
      "inputs": [
        {
          "internalType": "string",
          "name": "_name",
          "type": "string"
        },
        {
          "internalType": "string",
          "name": "_origin",
          "type": "string"
        }
      ],
      "name": "addItem",
      "outputs": [],
      "stateMutability": "nonpayable",
      "type": "function"
    },
    {
      "inputs": [
        {
          "internalType": "uint256",
          "name": "_id",
          "type": "uint256"
        }
      ],
      "name": "getItem",
      "outputs": [
        {
          "components": [
            {
              "internalType": "string",
              "name": "name",
              "type": "string"
            },
            {
              "internalType": "string",
              "name": "origin",
              "type": "string"
            },
            {
              "internalType": "address",
              "name": "farmer",
              "type": "address"
            },
            {
              "internalType": "address",
              "name": "distributor",
              "type": "address"
            },
            {
              "internalType": "address",
              "name": "retailer",
              "type": "address"
            },
            {
              "internalType": "enum FoodSupplyChain.Stage",
              "name": "stage",
              "type": "uint8"
            }
          ],
          "internalType": "struct FoodSupplyChain.Item",
          "name": "",
          "type": "tuple"
        }
      ],
      "stateMutability": "view",
      "type": "function"
    },
    {
      "inputs": [],
      "name": "itemCount",
      "outputs": [
        {
          "internalType": "uint256",
          "name": "",
          "type": "uint256"
        }
      ],
      "stateMutability": "view",
      "type": "function"
    },
    {
      "inputs": [
        {
          "internalType": "uint256",
          "name": "",
          "type": "uint256"
        }
      ],
      "name": "items",
      "outputs": [
        {
          "internalType": "string",
          "name": "name",
          "type": "string"
        },
        {
          "internalType": "string",
          "name": "origin",
          "type": "string"
        },
        {
          "internalType": "address",
          "name": "farmer",
          "type": "address"
        },
        {
          "internalType": "address",
          "name": "distributor",
          "type": "address"
        },
        {
          "internalType": "address",
          "name": "retailer",
          "type": "address"
        },
        {
          "internalType": "enum FoodSupplyChain.Stage",
          "name": "stage",
          "type": "uint8"
        }
      ],
      "stateMutability": "view",
      "type": "function"
    },
    {
      "inputs": [
        {
          "internalType": "uint256",
          "name": "_id",
          "type": "uint256"
        },
        {
          "internalType": "address",
          "name": "_retailer",
          "type": "address"
        }
      ],
      "name": "receiveItem",
      "outputs": [],
      "stateMutability": "nonpayable",
      "type": "function"
    },
    {
      "inputs": [
        {
          "internalType": "uint256",
          "name": "_id",
          "type": "uint256"
        },
        {
          "internalType": "address",
          "name": "_distributor",
          "type": "address"
        }
      ],
      "name": "shipItem",
      "outputs": [],
      "stateMutability": "nonpayable",
      "type": "function"
    }
  ],
  "bytecode": "0x6080604052348015600f57600080fd5b5061166c8061001f6000396000f3fe608060405234801561001057600080fd5b50600436106100625760003560e01c80633129e773146100675780636bfb0d01146100975780637ed8a719146100b5578063a80b20f2146100d1578063bb4f288d146100ed578063bfb231d214610109575b600080fd5b610081600480360381019061007c9190610bca565b61013e565b60405161008e9190610dcf565b60405180910390f35b61009f6103cb565b6040516100ac9190610e00565b60405180910390f35b6100cf60048036038101906100ca9190610f50565b6103d1565b005b6100eb60048036038101906100e69190610ff4565b6105b9565b005b61010760048036038101906101029190610ff4565b61077b565b005b610123600480360381019061011e9190610bca565b61093d565b6040516101359695949392919061109c565b60405180910390f35b610146610af6565b6000808381526020019081526020016000206040518060c00160405290816000820180546101739061113a565b80601f016020809104026020016040519081016040528092919081815260200182805461019f9061113a565b80156101ec5780601f106101c1576101008083540402835291602001916101ec565b820191906000526020600020905b8154815290600101906020018083116101cf57829003601f168201915b505050505081526020016001820180546102059061113a565b80601f01602080910402602001604051908101604052809291908181526020018280546102319061113a565b801561027e5780601f106102535761010080835404028352916020019161027e565b820191906000526020600020905b81548152906001019060200180831161026157829003601f168201915b505050505081526020016002820160009054906101000a900473ffffffffffffffffffffffffffffffffffffffff1673ffffffffffffffffffffffffffffffffffffffff1673ffffffffffffffffffffffffffffffffffffffff1681526020016003820160009054906101000a900473ffffffffffffffffffffffffffffffffffffffff1673ffffffffffffffffffffffffffffffffffffffff1673ffffffffffffffffffffffffffffffffffffffff1681526020016004820160009054906101000a900473ffffffffffffffffffffffffffffffffffffffff1673ffffffffffffffffffffffffffffffffffffffff1673ffffffffffffffffffffffffffffffffffffffff1681526020016004820160149054906101000a900460ff1660028111156103ae576103ad610cc8565b5b60028111156103c0576103bf610cc8565b5b815250509050919050565b60015481565b6040518060c001604052808381526020018281526020013373ffffffffffffffffffffffffffffffffffffffff168152602001600073ffffffffffffffffffffffffffffffffffffffff168152602001600073ffffffffffffffffffffffffffffffffffffffff1681526020016000600281111561045257610451610cc8565b5b8152506000806001548152602001908152602001600020600082015181600001908161047e9190611317565b5060208201518160010190816104949190611317565b5060408201518160020160006101000a81548173ffffffffffffffffffffffffffffffffffffffff021916908373ffffffffffffffffffffffffffffffffffffffff16021790555060608201518160030160006101000a81548173ffffffffffffffffffffffffffffffffffffffff021916908373ffffffffffffffffffffffffffffffffffffffff16021790555060808201518160040160006101000a81548173ffffffffffffffffffffffffffffffffffffffff021916908373ffffffffffffffffffffffffffffffffffffffff16021790555060a08201518160040160146101000a81548160ff0219169083600281111561059557610594610cc8565b5b0217905550905050600160008154809291906105b090611418565b91905055505050565b600160028111156105cd576105cc610cc8565b5b60008084815260200190815260200160002060040160149054906101000a900460ff16600281111561060257610601610cc8565b5b14610642576040517f08c379a0000000000000000000000000000000000000000000000000000000008152600401610639906114ac565b60405180910390fd5b60008083815260200190815260200160002060030160009054906101000a900473ffffffffffffffffffffffffffffffffffffffff1673ffffffffffffffffffffffffffffffffffffffff163373ffffffffffffffffffffffffffffffffffffffff16146106e5576040517f08c379a00000000000000000000000000000000000000000000000000000000081526004016106dc9061153e565b60405180910390fd5b8060008084815260200190815260200160002060040160006101000a81548173ffffffffffffffffffffffffffffffffffffffff021916908373ffffffffffffffffffffffffffffffffffffffff160217905550600260008084815260200190815260200160002060040160146101000a81548160ff0219169083600281111561077257610771610cc8565b5b02179055505050565b6000600281111561078f5761078e610cc8565b5b60008084815260200190815260200160002060040160149054906101000a900460ff1660028111156107c4576107c3610cc8565b5b14610804576040517f08c379a00000000000000000000000000000000000000000000000000000000081526004016107fb906115aa565b60405180910390fd5b60008083815260200190815260200160002060020160009054906101000a900473ffffffffffffffffffffffffffffffffffffffff1673ffffffffffffffffffffffffffffffffffffffff163373ffffffffffffffffffffffffffffffffffffffff16146108a7576040517f08c379a000000000000000000000000000000000000000000000000000000000815260040161089e90611616565b60405180910390fd5b8060008084815260200190815260200160002060030160006101000a81548173ffffffffffffffffffffffffffffffffffffffff021916908373ffffffffffffffffffffffffffffffffffffffff160217905550600160008084815260200190815260200160002060040160146101000a81548160ff0219169083600281111561093457610933610cc8565b5b02179055505050565b60006020528060005260406000206000915090508060000180546109609061113a565b80601f016020809104026020016040519081016040528092919081815260200182805461098c9061113a565b80156109d95780601f106109ae576101008083540402835291602001916109d9565b820191906000526020600020905b8154815290600101906020018083116109bc57829003601f168201915b5050505050908060010180546109ee9061113a565b80601f0160208091040260200160405190810160405280929190818152602001828054610a1a9061113a565b8015610a675780601f10610a3c57610100808354040283529160200191610a67565b820191906000526020600020905b815481529060010190602001808311610a4a57829003601f168201915b5050505050908060020160009054906101000a900473ffffffffffffffffffffffffffffffffffffffff16908060030160009054906101000a900473ffffffffffffffffffffffffffffffffffffffff16908060040160009054906101000a900473ffffffffffffffffffffffffffffffffffffffff16908060040160149054906101000a900460ff16905086565b6040518060c001604052806060815260200160608152602001600073ffffffffffffffffffffffffffffffffffffffff168152602001600073ffffffffffffffffffffffffffffffffffffffff168152602001600073ffffffffffffffffffffffffffffffffffffffff16815260200160006002811115610b7a57610b79610cc8565b5b81525090565b6000604051905090565b600080fd5b600080fd5b6000819050919050565b610ba781610b94565b8114610bb257600080fd5b50565b600081359050610bc481610b9e565b92915050565b600060208284031215610be057610bdf610b8a565b5b6000610bee84828501610bb5565b91505092915050565b600081519050919050565b600082825260208201905092915050565b60005b83811015610c31578082015181840152602081019050610c16565b60008484015250505050565b6000601f19601f8301169050919050565b6000610c5982610bf7565b610c638185610c02565b9350610c73818560208601610c13565b610c7c81610c3d565b840191505092915050565b600073ffffffffffffffffffffffffffffffffffffffff82169050919050565b6000610cb282610c87565b9050919050565b610cc281610ca7565b82525050565b7f4e487b7100000000000000000000000000000000000000000000000000000000600052602160045260246000fd5b60038110610d0857610d07610cc8565b5b50565b6000819050610d1982610cf7565b919050565b6000610d2982610d0b565b9050919050565b610d3981610d1e565b82525050565b600060c0830160008301518482036000860152610d5c8282610c4e565b91505060208301518482036020860152610d768282610c4e565b9150506040830151610d8b6040860182610cb9565b506060830151610d9e6060860182610cb9565b506080830151610db16080860182610cb9565b5060a0830151610dc460a0860182610d30565b508091505092915050565b60006020820190508181036000830152610de98184610d3f565b905092915050565b610dfa81610b94565b82525050565b6000602082019050610e156000830184610df1565b92915050565b600080fd5b600080fd5b7f4e487b7100000000000000000000000000000000000000000000000000000000600052604160045260246000fd5b610e5d82610c3d565b810181811067ffffffffffffffff82111715610e7c57610e7b610e25565b5b80604052505050565b6000610e8f610b80565b9050610e9b8282610e54565b919050565b600067ffffffffffffffff821115610ebb57610eba610e25565b5b610ec482610c3d565b9050602081019050919050565b82818337600083830152505050565b6000610ef3610eee84610ea0565b610e85565b905082815260208101848484011115610f0f57610f0e610e20565b5b610f1a848285610ed1565b509392505050565b600082601f830112610f3757610f36610e1b565b5b8135610f47848260208601610ee0565b91505092915050565b60008060408385031215610f6757610f66610b8a565b5b600083013567ffffffffffffffff811115610f8557610f84610b8f565b5b610f9185828601610f22565b925050602083013567ffffffffffffffff811115610fb257610fb1610b8f565b5b610fbe85828601610f22565b9150509250929050565b610fd181610ca7565b8114610fdc57600080fd5b50565b600081359050610fee81610fc8565b92915050565b6000806040838503121561100b5761100a610b8a565b5b600061101985828601610bb5565b925050602061102a85828601610fdf565b9150509250929050565b600082825260208201905092915050565b600061105082610bf7565b61105a8185611034565b935061106a818560208601610c13565b61107381610c3d565b840191505092915050565b61108781610ca7565b82525050565b61109681610d1e565b82525050565b600060c08201905081810360008301526110b68189611045565b905081810360208301526110ca8188611045565b90506110d9604083018761107e565b6110e6606083018661107e565b6110f3608083018561107e565b61110060a083018461108d565b979650505050505050565b7f4e487b7100000000000000000000000000000000000000000000000000000000600052602260045260246000fd5b6000600282049050600182168061115257607f821691505b6020821081036111655761116461110b565b5b50919050565b60008190508160005260206000209050919050565b60006020601f8301049050919050565b600082821b905092915050565b6000600883026111cd7fffffffffffffffffffffffffffffffffffffffffffffffffffffffffffffffff82611190565b6111d78683611190565b95508019841693508086168417925050509392505050565b6000819050919050565b600061121461120f61120a84610b94565b6111ef565b610b94565b9050919050565b6000819050919050565b61122e836111f9565b61124261123a8261121b565b84845461119d565b825550505050565b600090565b61125761124a565b611262818484611225565b505050565b5b818110156112865761127b60008261124f565b600181019050611268565b5050565b601f8211156112cb5761129c8161116b565b6112a584611180565b810160208510156112b4578190505b6112c86112c085611180565b830182611267565b50505b505050565b600082821c905092915050565b60006112ee600019846008026112d0565b1980831691505092915050565b600061130783836112dd565b9150826002028217905092915050565b61132082610bf7565b67ffffffffffffffff81111561133957611338610e25565b5b611343825461113a565b61134e82828561128a565b600060209050601f831160018114611381576000841561136f578287015190505b61137985826112fb565b8655506113e1565b601f19841661138f8661116b565b60005b828110156113b757848901518255600182019150602085019450602081019050611392565b868310156113d457848901516113d0601f8916826112dd565b8355505b6001600288020188555050505b505050505050565b7f4e487b7100000000000000000000000000000000000000000000000000000000600052601160045260246000fd5b600061142382610b94565b91507fffffffffffffffffffffffffffffffffffffffffffffffffffffffffffffffff8203611455576114546113e9565b5b600182019050919050565b7f4e6f742073686970706564207965740000000000000000000000000000000000600082015250565b6000611496600f83611034565b91506114a182611460565b602082019050919050565b600060208201905081810360008301526114c581611489565b9050919050565b7f4f6e6c79206469737472696275746f722063616e20636f6e6669726d2064656c60008201527f6976657279000000000000000000000000000000000000000000000000000000602082015250565b6000611528602583611034565b9150611533826114cc565b604082019050919050565b600060208201905081810360008301526115578161151b565b9050919050565b7f416c72656164792073686970706564206f722072656365697665640000000000600082015250565b6000611594601b83611034565b915061159f8261155e565b602082019050919050565b600060208201905081810360008301526115c381611587565b9050919050565b7f4f6e6c79206661726d65722063616e2073686970000000000000000000000000600082015250565b6000611600601483611034565b915061160b826115ca565b602082019050919050565b6000602082019050818103600083015261162f816115f3565b905091905056fea264697066735822122052e9abbbabedc506efca895746621a99a78255370ff3457fdc0ad8f979e5887e64736f6c634300081c0033",
  "linkReferences": {},
  "deployedLinkReferences": {}
}